:080000000C943A000C9400007E
:100008000C9400000C9400000C9400000C94000068
:100018000C9400000C9400000C9400000C94000058
:100028000C9400000C9400000C9400000C94000048
:100038000C9400000C9400000C9400000C94000038
:100048000C9400000C9400000C94000000000000C8
:10005800FC00120011001200FC0000000000FF006C
:10006800890089008900760000000000F894EE27D6
:10007800ECBBF1E0F5BFE5BF8DE0A2E0BB27ED9357
:100088008A95E9F780E098E0A0E6ED930197E9F713
:10009800EFE5EDBFE8E0EEBFC0E6D2E00C94540017
:1000A800A09780E2A0E0B0E0E4E5F0E00E949D00C7
:1000B80000E010E0EFEFEABBE7BBE4BB00E010E0D4
:1000C8000830E0E01E076CF4F80138961ED0E5BB56
:1000D80088EC90E00197F1F7E0E0E5BB0F5F1F4F78
:1000E800EFCF00E010E00830E0E01E0764F4F8010C
:1000F8000CD0EBBB88EC90E00197F1F7E0E0EBBBAC
:100108000F5F1F4FF0CFDACFFFCFDE01EE0FFF1FDB
:10011800AE0FBF1FEC91E8BBE02FA1E00E94950055
:100128000895EE230E2EEA2F19F0EE0F0A94E9F740
:100138000895AC0FBD1F05900D928A95E1F70895BB
:00000001FF
